:0400000508005FA9E7
:020000040800F2
:1000000000800020A95F0008E55F0008E10100080A
:10001000ED010008F90100080502000800000000D9
:1000200000000000000000000000000011020008B5
:100030001D02000800000000290200080D570008FA
:10004000D93B00083502000841020008000000000A
:10005000000000004D020008590200086502000877
:10006000595C000800000000710200087D020008D1
:100070008902000800000000ED4F0008950200080A
:10008000A1020008AD02000800000000B90200084B
:10009000C502000800000000000000000000000091
:1000A000000000000000000000000000D102000875
:1000B000DD020008E9020008F5020008010300085B
:1000C00080B485B000AF2B4BDB6803F00203022B3A
:1000D00002D1294BFB6001E0274BFB60254BDB681D
:1000E00003F00103012B02D1FB685B08FB60FB6896
:1000F000BB60204BDB6803F00403042B0BD11D4BCA
:100100005B681B0A03F00F0301337B60BB687A68EE
:1001100002FB03F3BB60174BDB681B0A03F003030E
:10012000022B18D0022B1BD8002B02D0012B04D09D
:1001300016E0124B104A1A6017E00E4BDB681B09E1
:1001400003F00F030133BA68B2FBF3F33B600B4AD1
:100150003B68136009E0094B4FF400421A6004E069
:10016000064B49F640421A6000BF00BF1437BD4637
:1001700080BC70470000024000127A002C0600206C
:1001800080B500AF134B144A9A60144B1022DA6109
:10019000124B0022DA60114B00225A600F4B0022F2
:1001A0009A600E4B00221A610C4B00225A610B4BD5
:1001B00000229A61094B00221A62084B00225A62FF
:1001C000064B00229A62054B0022DA62FFF778FFA5
:1001D00000BF80BD00ED00E000000008000002400C
:1001E00080B400AF00BFBD4680BC704780B400AF94
:1001F00000BFBD4680BC704780B400AF00BFBD46A5
:1002000080BC704780B400AF00BFBD4680BC704763
:1002100080B400AF00BFBD4680BC704780B400AF63
:1002200000BFBD4680BC704780B400AF00BFBD4674
:1002300080BC704780B400AF00BFBD4680BC704733
:1002400080B400AF00BFBD4680BC704780B400AF33
:1002500000BFBD4680BC704780B400AF00BFBD4644
:1002600080BC704780B400AF00BFBD4680BC704703
:1002700080B400AF00BFBD4680BC704780B400AF03
:1002800000BFBD4680BC704780B400AF00BFBD4614
:1002900080BC704780B400AF00BFBD4680BC7047D3
:1002A00080B400AF00BFBD4680BC704780B400AFD3
:1002B00000BFBD4680BC704780B400AF00BFBD46E4
:1002C00080BC704780B400AF00BFBD4680BC7047A3
:1002D00080B400AF00BFBD4680BC704780B400AFA3
:1002E00000BFBD4680BC704780B400AF00BFBD46B4
:1002F00080BC704780B400AF00BFBD4680BC704773
:1003000080B400AF00BFBD4680BC704780B485B0EC
:1003100000AF0346FB71094B9B6B23F03F03FB606F
:10032000FB7903F03F03FA681343FB60034AFB6861
:10033000936300BF1437BD4680BC704700800D40FA
:1003400080B485B000AF78607B6800221A607B685B
:1003500000225A607B6800229A607B6800221A6142
:100360007B680022DA617B680022C3F8C0207B68CA
:100370000022C3F8C8200023FB6008E07B68FA680D
:100380001032002143F82210FB680133FB60FB6848
:100390001F2BF3D900BF00BF1437BD4680BC704788
:1003A00080B487B000AF7860396000237B613B6820
:1003B0001B78002B03D07B6943F010037B613B6803
:1003C0005B78002B03D07B6943F008037B613B68BB
:1003D0009B78002B03D07B6943F004037B613B686F
:1003E000DB78002B03D07B6943F002037B617B68E1
:1003F0007A691A603B685A683B689B681A443B6894
:10040000DB681A443B681B6913443A68128B134437
:10041000FB603B685B69FA681343FB607B68FA68C2
:100420009A6000233B610FE07A683B69A033DB00F0
:10043000134400225A607B683A69A032002143F8D5
:1004400032103B6901333B613B691F2BECD93B68A0
:100450009B7E1A467B68DA6100BF1C37BD4680BCB4
:10046000704780B483B000AF78607B6800221A7058
:100470007B6800225A707B6800229A707B68002299
:10048000DA707B6800225A607B684FF400229A6021
:100490007B684FF0A072DA607B6800221A617B688B
:1004A00000225A617B6800221A837B68FF229A76B9
:1004B00000BF0C37BD4680BC704780B485B000AF2C
:1004C000F860B9607A607B681A68F968BB68A03325
:1004D000DB000B445A607B685968FB68BA68A0323D
:1004E00043F8321000BF1437BD4680BC704780B45B
:1004F00085B000AFF860B9601346FB71FB79002B43
:1005000006D0FB681A69BB681A43FB681A6106E0EB
:10051000FB681A69BB68DB431A40FB681A6100BFBD
:100520001437BD4680BC704780B487B000AFF86018
:10053000B9607A607B685B79002B05D17B689B7919
:1005400003F520637B6104E07B689B7903F5D0535E
:100550007B61FA68BB6820331B01134404337A695A
:100560001A607B681A68F968BB6820331B010B446A
:100570001A607B689A68F968BB681B010B4403F535
:1005800002731A607B68DA68F968BB681B010B4468
:1005900003F503731A6000237B617B681B79002BD2
:1005A00003D07B6943F010037B617B6943F0200338
:1005B0007B617B6943F001037B61FB68BA681032A1
:1005C000796943F8221000BF1C37BD4680BC7047D4
:1005D00080B487B000AFF860B9601346FB710023A8
:1005E0007B61FB79002B01D004237B617B6943F0A5
:1005F00003037B61FB68BA681032796943F8221003
:1006000000BF1C37BD4680BC704780B586B000AFC8
:10061000F860B9607A60BB6820331B01FA68134444
:100620000433184600F062F978617B69DBB203F0AD
:100630000F03DAB27B689A717B6800225A717B697A
:1006400003F48053002B02D07B6801225A717B682F
:1006500000221A71BB6810339B00FA6813441846D5
:1006600000F044F978617B6903F00403002B02D0A9
:100670007B6801221A71BB6820331B01FA6813449E
:10068000184600F033F902467B681A60BB681B010C
:1006900003F50273FA681344184600F027F902467E
:1006A0007B689A60BB681B0103F50273FA68134408
:1006B0000433184600F01AF902467B68DA6000BF7E
:1006C0001837BD4680BD80B485B000AF7860396012
:1006D0007B683A68103253F82230FB60FB6823F0E5
:1006E0000103FB607B683A681032F96843F8221016
:1006F00000BF1437BD4680BC704780B485B000AFE2
:1007000078600B46FB707B681B68FB60FB78002BF6
:1007100004D0FB6843F00103FB6003E0FB6823F0B7
:100720000103FB607B68FA681A6000BF1437BD469E
:1007300080BC704780B487B000AFF860B9601346E2
:10074000FB71FB68D3F8C0307B61FB79002B04D0D0
:100750007A69BB6813437B6104E0BB68DB437A6959
:1007600013407B61FB687A69C3F8C02000BF1C3767
:10077000BD4680BC704780B485B000AF78603960FA
:100780007B68D3F8C4207B68D3F8C0301A403B683C
:1007900022FA03F303F00103002B02D10023FB73C1
:1007A00001E00123FB73FB7B18461437BD4680BC78
:1007B000704780B487B000AFF860B9601346FB7132
:1007C000FB68D3F8C8307B61FB79002B04D07A69D1
:1007D000BB6813437B6104E0BB68DB437A69134069
:1007E0007B61FB687A69C3F8C82000BF1C37BD462F
:1007F00080BC704780B485B000AF786039607B689A
:10080000D3F8CC207B68D3F8C8301A403B6822FA72
:1008100003F303F00103002B02D10023FB7301E07B
:100820000123FB73FB7B18461437BD4680BC704721
:1008300080B487B000AFF860B9607A60FB68BA68CE
:10084000103253F822307B617B68012B04D17B6925
:1008500023F040037B6106E07B68022B03D17B69B8
:1008600043F020037B61FB68BA681032796943F872
:10087000221000BF1C37BD4680BC704780B485B0D5
:1008800000AF78600B46FB70164B1B6AFB607B6801
:10089000B3F1804F0CD1FB6843F08073FB60FB68C1
:1008A00023F0FF03FB60FB78FA681343FB6011E061
:1008B0007B680D4A93420DD1FB6843F00073FB60E7
:1008C000FB6823F47F43FB60FB781B021A46FB683E
:1008D0001343FB60034AFB68136200BF1437BD4635
:1008E00080BC7047000002400080004080B485B0AA
:1008F00000AF786072B600BF7B681B68FB60FB6866
:10090000002B02D17B681B68FB6062B600BFFB68EE
:1009100018461437BD4680BC7047000080B483B0D1
:1009200000AF0346FB71044AFB79136000BF0C372C
:10093000BD4680BC704700BF0080014080B48FB0CE
:1009400000AF786039607B685B687B637B689B681D
:100950003B637B68DB68FB627B681B69BB627B680F
:100960005B697B627B689B693B627B68DB69FB61DF
:1009700000237B6101233B610323FB604FF00113E4
:10098000BB603B681B88BB6179E0BB6903F0010376
:10099000002B65D03B69DA437B6B13403A68927851
:1009A00011467A6901FA02F213437B63FB68DA436A
:1009B0003B6B13403A68127A11467A69520001FA89
:1009C00002F213433B633B69DA43FB6A13403A6824
:1009D000927A11467A6901FA02F21343FB62BB680C
:1009E000DA43BB6A13403A68D27811467A6910320A
:1009F00001FA02F213433A68127911467A6901FA50
:100A000002F21343BB62BB68DA437B6A13403A6865
:100A1000527911467A69103201FA02F213433A68A8
:100A2000927911467A6901FA02F213437B62FB68FC
:100A3000DA433B6A13403A68527A11467A695200A7
:100A400001FA02F213433B623B69DA43FB6913404C
:100A50003A68D27911467A6901FA02F21343FB61CE
:100A60003B695B003B61FB689B00FB60BB685B0014
:100A7000BB607B6901337B61BB695B08BB61BB69A0
:100A8000002B82D17B682E4A934202D16FF01F0265
:100A900001E04FF0FF327B6B1A407B685A607B6845
:100AA000274A934201D1274A01E04FF0FF323B6BC6
:100AB0001A407B689A607B68214A934202D16FF0AA
:100AC0001F0201E04FF0FF32FB6A1A407B68DA60D8
:100AD0007B681B4A934202D16FF01F1201E04FF076
:100AE000FF32BB6A1A407B681A617B68144A9342E2
:100AF00002D16FF01F1201E04FF0FF327B6A1A4003
:100B00007B685A617B680E4A934201D10D4A01E02D
:100B10004FF0FF323B6A1A407B689A617B68084A53
:100B2000934202D16FF01F0201E04FF0FF32FB69E8
:100B30001A407B68DA6100BF3C37BD4680BC704715
:100B400000000C4000FCFFFF80B483B000AF786071
:100B50007B684FF6FF721A807B6800229A707B6870
:100B60000022DA707B6800221A717B6800225A71B9
:100B70007B6800229A717B680022DA717B68002210
:100B80001A727B6800225A727B6800229A7200BF38
:100B90000C37BD4680BC704780B500AF00F010F840
:100BA000054B9B6B044A23F03F039363024B034ABC
:100BB000DA6300BF80BD00BF00800D400080502080
:100BC00080B500AF134B144ADA61012000F070F8D1
:100BD00000F07EF80F4B0022DA600E4B00225A60C4
:100BE0000C4B00229A600B4B00221A61094B002229
:100BF0005A61084B00229A61064B00221A62054B8B
:100C000000225A62034B00229A62024B0022DA62EF
:100C100000BF80BD000002401000000880B483B017
:100C200000AF0346FB710F4B9B680E4A23F0030392
:100C30009360FB79012B02D0022B07D00DE0094B0A
:100C40009B68084A43F00103936006E0054B9B68EC
:100C5000044A43F00303936000BF00BF0C37BD4656
:100C600080BC70470000024080B582B000AF002316
:100C70003B60222000F0FCF80346BB713B68013367
:100C80003B603B68B3F5C06F02D2BB79002BF0D05C
:100C9000222000F0EDF80346002B02D00123FB7167
:100CA00001E00023FB71FB7918460837BD4680BD83
:100CB00080B483B000AF0346FB71044AFB79136034
:100CC00000BF0C37BD4680BC704700BFD807B0439B
:100CD00080B582B000AF00233B60172000F0C8F859
:100CE0000346BB713B6801333B603B68B3F5C06FA3
:100CF00002D2BB79002BF0D0172000F0B9F80346E0
:100D0000002B02D00123FB7101E00023FB71FB7972
:100D100018460837BD4680BD80B485B000AF034695
:100D20003960FB71154BDB68FB60FB6823F0030344
:100D3000FB60FB79FA681343FB60104AFB68D360E1
:100D40000E4B5B68FB60FB6823F47063FB603B68E1
:100D50001B02FA681343FB60084AFB685360084BA8
:100D60001B68002B05D0074B01221A60054B00229F
:100D70001A6000BF1437BD4680BC704700000240B7
:100D8000880040428C00404280B483B000AF0346EC
:100D9000FB71044AFB79136000BF0C37BD4680BC71
:100DA000704700BF8801404280B483B000AF034663
:100DB000FB71044AFB79136000BF0C37BD4680BC51
:100DC000704700BF8800404280B485B000AF034642
:100DD000FB710A4BDB68FB60FB6823F0F003FB60F0
:100DE000FB791B01FA681343FB60044AFB68D3607C
:100DF00000BF1437BD4680BC704700BF00000240F2
:100E000080B485B000AF0346FB80094BDB68FB6014
:100E1000FB6823F44073FB60FB88FA681343FB60B4
:100E2000034AFB68D36000BF1437BD4680BC7047DF
:100E30000000024080B483B000AF78600B46FB70C6
:100E4000FB78002B06D0094BDA6908497B6813430D
:100E5000CB6106E0054BDA697B68DB43034913404D
:100E6000CB6100BF0C37BD4680BC7047000002401C
:100E700080B485B000AF0346FB71FB7923F01F03FC
:100E8000DBB2202B03D10E4B1B68FB6002E00D4B45
:100E9000DB6BFB60FB7903F01F03FA6822FA03F3B4
:100EA00003F00103002B02D00123FB7201E00023B9
:100EB000FB72FB7A18461437BD4680BC704700BFF2
:100EC0000000024000800D4080B483B000AF786025
:100ED0007B6800221A607B6800225A607B680022CF
:100EE0001A617B6800225A617B6800225A627B6823
:100EF00003221A6200BF0C37BD4680BC704780B425
:100F000085B000AF786039603B685B881A467B68C3
:100F10001A613B681B881B023A68927913443A684D
:100F2000D27913443A68127A13443A6852791344D6
:100F3000FB607B68FA681A603B685B7A1A463B681C
:100F40001B791344FB607B68FA685A6000BF143752
:100F5000BD4680BC704780B483B000AF78607B68CA
:100F600000221A717B6807225A717B680022DA71AD
:100F70007B6800229A717B6800221A727B680222C9
:100F80005A807B6800221A807B6800225A7200BF58
:100F90000C37BD4680BC704780B483B000AF78602A
:100FA0000B46FB70FB78002B06D07B685B6843F038
:100FB00002027B685A6006E07B685A684FF6FD7350
:100FC00013407A68536000BF0C37BD4680BC704741
:100FD00080B485B000AF78600B46FB707B68DA693F
:100FE000FB781340002B02D00123FB7301E00023A8
:100FF000FB73FB7B18461437BD4680BC704780B43A
:1010000083B000AF78600B46FB707B681A6AFB7890
:101010001A437B681A6200BF0C37BD4680BC70471C
:1010200080B483B000AF78600B467B807A887B68A1
:101030009A6000BF0C37BD4680BC704780B483B057
:1010400000AF78607B689B689BB218460C37BD4642
:1010500080BC704780B485B000AF78600B46FB70F1
:101060007B68DA68FB781340002B02D00123FB7306
:1010700001E00023FB73FB7B18461437BD4680BCA0
:101080007047000080B485B000AF78600B46FB70FD
:10109000164BDB6AFB607B68154A93420CD1FB68F8
:1010A00043F08073FB60FB6823F0FF03FB60FB7879
:1010B000FA681343FB6010E07B680E4A93420CD140
:1010C000FB6843F00073FB60FB6823F47F43FB6025
:1010D000FB781B02FA681343FB60044AFB68D36287
:1010E00000BF1437BD4680BC704700BF00000240FF
:1010F0000000044000000A4080B483B000AF786074
:101100007B680022DA607B6800221A607B6800221C
:101110005A607B6800229A607B6800221A627B68B2
:1011200000225A627B6800229A627B680022DA629F
:101130007B6800221A637B6800225A637B68002266
:101140009A637B680022DA637B6800221A667B68F8
:1011500000225A667B6800229A667B680022DA6663
:101160007B6800221A617B6800225A617B6800223A
:101170009A617B680022DA617B6800221A677B68CB
:1011800000225A677B6800229A677B680022DA6730
:101190007B6800221A647B6800225A647B68002204
:1011A0009A647B680022DA647B6800221A657B6897
:1011B00000225A657B6800229A657B680022DA6506
:1011C00000BF0C37BD4680BC704780B485B000AF0F
:1011D000786039603B681B881A467B681A603B68F8
:1011E0005B881A467B685A603B689B881A467B6816
:1011F0009A603B68DA883B681B8913439AB23B6864
:101200005B8913439AB23B689B8913439AB23B684C
:10121000DB8913439BB2FB607B68FA68DA603B684A
:101220001B8A1B013A68528A13433A68928A134315
:101230003A68D28A1343BB607B68BA681A6500BFFC
:101240001437BD4680BC704780B485B000AF78606D
:101250000B46FB707B68DB68FB60FB78002B04D0DF
:10126000FB6843F00103FB6003E0FB6823F001032C
:10127000FB607B68FA68DA6000BF1437BD4680BC4B
:10128000704780B487B000AF786039603B685A8897
:101290003B68DB8813439AB23B681B8913439AB2BD
:1012A0003B685B8913439BB21A463B689B899B0151
:1012B00013433A68D28913433A68128A13437B6115
:1012C0003B689B88002B03D07B6943F480737B6170
:1012D0003B681B88FB607B6803F12002FB689B0076
:1012E00013447A691A603B685A8A3B68DB8A134365
:1012F0009BB23B613B689B8A002B03D03B6943F068
:1013000004033B613B681B8B002B03D03B6943F01C
:1013100010033B617B6803F16002FB689B00134490
:101320003A691A6000BF1C37BD4680BC704780B464
:1013300083B000AF78607B6800221A807B6800224F
:101340005A807B6800229A807B680022DA807B6862
:1013500000221A817B6800225A817B6800229A81D0
:101360007B680022DA817B6800221A827B68002277
:101370005A827B6800229A827B680022DA827B682C
:1013800001221A8300BF0C37BD4680BC704780B471
:1013900085B000AF78600B46FB7013463B807B68DE
:1013A00003F11002FB789B001344FB603A88FB6852
:1013B0001A6000BF1437BD4680BC704780B487B048
:1013C00000AF786039603B685B881A013B689B8896
:1013D0009B0013433A68D2881A433B681B891B035E
:1013E0001A433B685B899B021A433B689B891B023B
:1013F00013437B613B681B883B617B6803F13002D0
:101400003B699B0013447A691A603B68DB891B02C5
:101410003A68128A13433A68528A1343FB607B6826
:1014200003F140023B699B001344FA681A6000BF55
:101430001C37BD4680BC704780B483B000AF786075
:101440007B6800221A807B6800225A807B68002219
:101450009A807B680022DA807B6800221A817B6890
:1014600000225A817B6800229A817B680022DA81FF
:101470007B6800221A827B6800225A8200BF0C37E8
:10148000BD4680BC704780B483B000AF78603960DF
:101490003B68DA437B685A6500BF0C37BD4680BCA9
:1014A000704780B487B000AFF860B9601346FB7135
:1014B000FB689B6D7B61FB79002B04D07A69BB686C
:1014C00013437B6104E0BB68DB437A6913407B61B3
:1014D000FB687A699A6500BF1C37BD4680BC7047BF
:1014E00080B485B000AF786039607B689B6DBB606D
:1014F0007B685A6DBB6813403A681340BB60BB6899
:10150000002B02D10023FB7301E00123FB73FB7B63
:1015100018461437BD4680BC7047000080B485B0C3
:1015200000AF78600B46FB70204B5B6AFB607B680A
:101530001F4A93420CD1FB6823F0FF03FB60FB784A
:10154000FA681343FB60FB6843F08073FB6024E0A0
:101550007B68184A93420ED1FB6823F47F43FB60FB
:10156000FB781B021A46FB681343FB60FB6843F0E1
:101570000073FB6011E07B680F4A93420DD1FB685A
:1015800023F47F03FB60FB781B041A46FB681343BC
:10159000FB60FB6843F08063FB60044AFB685362B6
:1015A00000BF1437BD4680BC704700BF000002403A
:1015B00000000740008007400000084080B483B06E
:1015C00000AF786039607B68002B04D13B68FF2254
:1015D0001A70012324E07B68B3F5616F01D2002308
:1015E0001EE07B6841F27072934201D9002317E03C
:1015F0007A680E4BA3FB02135B09642101FB03F322
:10160000D31A002B01D000230AE07B68A3F56163A5
:10161000064AA2FB03235B09DAB23B681A70012376
:1016200018460C37BD4680BC704700BF1F85EB5184
:1016300080B483B000AF786039607B68002B04D140
:101640003B68FF221A70012310E07B68452B01D80C
:1016500000230BE07B68842B01D9002306E07B6824
:10166000463B5B08DAB23B681A70012318460C3718
:10167000BD4680BC704780B483B000AF78603960ED
:101680007B68002B04D13B68FF221A70012310E015
:101690007B68242B01D800230BE07B68642B01D9E5
:1016A000002306E07B68DBB2253BDAB23B681A70A8
:1016B000012318460C37BD4680BC704780B487B004
:1016C00000AFF860B9607A6000237B6100233B6162
:1016D0002AE03B69BA6813441B787B617B690F2B56
:1016E00001D90F237B617B69DAB23B69F9680B444E
:1016F0001201D2B21A703B697A6813441B787B617D
:101700007B690F2B01D90F237B613B69FA68134476
:1017100019787B69DAB23B69F86803440A43D2B2AC
:101720001A703B6901333B613B69072BD1DD012313
:1017300018461C37BD4680BC704780B485B000AFEA
:1017400078600023FB737B689B781B01FB737B68CD
:101750001B78002B03D0FB7B43F00103FB737B68FA
:101760005B78002B03D0FB7B43F00203FB73FB7B16
:1017700043F00C03FB73FB7B18461437BD4680BC5B
:10178000704780B485B000AF78600023FB737B683E
:101790001B7C002B01D00123FB737B685B7C002B3F
:1017A00003D0FB7B43F00803FB737B689B7C002B1F
:1017B00003D0FB7B43F00203FB737B68DB7C002BD5
:1017C00003D0FB7B43F00403FB737B681B7D002B82
:1017D00003D0FB7B43F04003FB737B689B7D002BB6
:1017E00003D0FB7B43F01003FB737B685B7D002B16
:1017F00003D0FB7B43F02003FB73FB7B18461437BD
:10180000BD4680BC7047000080B58CB000AF7860EA
:101810007B68002B01D1002314E104F07FF9002341
:1018200087F82B300021042000F02AF9034687F8BE
:101830002B3097F82B30012B02D097F82B3001E199
:10184000824BBB6101E000BF00BFBB695A1EBA6199
:10185000002BF8D1FF23FB757B685B6807F117024B
:1018600011461846FFF7AAFE0346012B11D1FB7D56
:10187000FF2B0ED0FB7D1946032000F001F9034633
:1018800087F82B3097F82B30012B02D097F82B30AC
:10189000D8E0FF23BB757B68DB6807F116021146B1
:1018A0001846FFF7C5FE0346012B11D1BB7DFF2B68
:1018B0000ED0BB7D1946012000F0E2F8034687F800
:1018C0002B3097F82B30012B02D097F82B30B9E052
:1018D000FF237B757B689B6807F11502114618464C
:1018E000FFF7C9FE0346012B11D17B7DFF2B0ED0E4
:1018F0007B7D1946022000F0C3F8034687F82B30A1
:1019000097F82B30012B02D097F82B309AE0002368
:10191000FB6000233B617B6820337B627B6818336C
:101920003B6207F10C033A6A796A1846FFF7C6FE74
:101930000346012B1ED10023FB6218E0FB6ADBB2D9
:101940001033D8B207F10C02FB6A13441B78194616
:1019500000F096F8034687F82B3097F82B30012BD0
:1019600002D097F82B306DE0FB6A0133FB62FB6A13
:10197000072BE3DD7868FFF704FF0346FB77FB7F67
:1019800019460A2000F07CF8034687F82B3097F8B8
:101990002B30012B02D097F82B3053E07B68DB7D96
:1019A000FB77FB7F43F00103FB77FB7F19460B209E
:1019B00000F066F8034687F82B3097F82B30012BA0
:1019C00002D097F82B303DE07868FFF7B6FE03466B
:1019D000FB77FB7F1946062000F052F8034687F894
:1019E0002B3097F82B30012B02D097F82B3029E0C1
:1019F0000A21302000F044F8034687F82B307B683A
:101A000093F8293019460E2000F03AF8034687F87B
:101A10002B307B6893F8283019460F2000F030F8FF
:101A2000034687F82B30012000F014F8084BBB6107
:101A300001E000BF00BFBB695A1EBA61002BF8D19C
:101A400097F82B3018463037BD4680BD384401002A
:101A5000E0A57E0080B584B000AF0346FB71FB7942
:101A6000002B01D0EF2300E00023FB73FB7B194622
:101A7000072000F005F8034618461037BD4680BD24
:101A800080B584B000AF03460A46FB711346BB71B4
:101A90000023BB81FB791B021AB2BB791BB2134333
:101AA0001BB29BB27B8107F10C0107F10A030122F3
:101AB000184604F08FF80346FB81FB89002B01D008
:101AC000012300E0002318461037BD4680BD00000A
:101AD00080B590B000AFF860B9607A60FB68002B09
:101AE00001D1002349E1BB68DBB2BB63BB6B03F0F0
:101AF000F0037B63BB6B03F00F033B637B6B102B2B
:101B00003DD13B6B0F2B3AD93B6B172B37D8BB6BB7
:101B100087F82F307B6887F82E3097F82E2097F8BB
:101B20002F3011461846FFF7ABFF034687F82D30DC
:101B300097F82D30012B1FD197F82E3003F00F03AB
:101B400087F82C3097F82E3023F00F0387F82B30CE
:101B50003B6BDBB2103B87F82A3097F82A30FA68E3
:101B6000134497F82B2083F8202097F82A30FA683E
:101B7000134497F82C201A7697F82D30FDE00123B6
:101B800087F83F30BB6B063B092B00F2E08001A2D7
:101B900052F823F0BD1B00084F1D00084F1D000820
:101BA0004F1D00082D1C00084F1D00084F1D000888
:101BB0004F1D0008D11C0008131D0008FB68BB6105
:101BC0007B685B0803F00103002B14BF0123002393
:101BD000FB757B6803F00103002B14BF0123002376
:101BE000BB75BB695B787B75BB691B783B75BB6953
:101BF000BA7D1A70BB69FA7D5A70B869FFF79DFD0E
:101C00000346FB74FB7C19460620FFF739FF0346A9
:101C100087F83F3097F83F30012B00F0A580BB6973
:101C20003A7D1A70BB697A7D5A709DE0FB687B62D1
:101C30007B689B0903F00103002B14BF01230023E1
:101C400087F823307B685B0903F00103002B14BF86
:101C50000123002387F822307B681B0903F001036E
:101C6000002B14BF0123002387F821307B6A1B7DE2
:101C700087F820307B6A5B7DFB777B6A9B7DBB7737
:101C80007B6A97F823201A757B6A97F822205A7589
:101C90007B6A97F821209A75786AFFF772FD0346F0
:101CA0007B777B7F19460A20FFF7EAFE034687F819
:101CB0003F3097F83F30012B58D07B6A97F82020AF
:101CC0001A757B6AFA7F5A757B6ABA7F9A754DE0FE
:101CD000FB6893F8293087F828307B68DBB203F083
:101CE0000F03DAB2FB6883F82920FB6893F82930E8
:101CF00019460E20FFF7C4FE034687F83F3097F8D9
:101D00003F30012B34D0FB6897F8282083F8292036
:101D10002EE0FB6893F8283087F829307B68DAB228
:101D2000FB6883F82820FB6893F8283019460F20B9
:101D3000FFF7A6FE034687F83F3097F83F30012BA8
:101D400018D0FB6897F8292083F8282012E07B68D8
:101D5000BB74BB6BDBB2BA7C11461846FFF790FE32
:101D6000034687F83F3006E000BF04E000BF02E012
:101D700000BF00E000BF97F83F3018464037BD462F
:101D800080BD00BF80B483B000AF78600B46FB70AD
:101D90007B68FA7883F8282000BF0C37BD4680BCEA
:101DA000704780B483B000AF78600B46FB70FB785F
:101DB00003F00F03DAB27B6883F8292000BF0C37E9
:101DC000BD4680BC704780B483B000AF78600B46DE
:101DD000FB707B6806229A70FB7803F00103002BEE
:101DE00014BF01230023DAB27B681A70FB7803F07A
:101DF0000203002B14BF01230023DAB27B685A7060
:101E000000BF0C37BD4680BC704780B483B000AFC4
:101E100078600B46FB707B6801221A747B68012294
:101E20005A747B6800229A747B680022DA74FB780B
:101E300003F04003002B14BF01230023DAB27B68B8
:101E40001A75FB7803F01003002B14BF0123002345
:101E5000DAB27B689A75FB7803F02003002B14BF7D
:101E600001230023DAB27B685A7500BF0C37BD46E8
:101E700080BC704780B400AFBFF34F8F00BF064BEC
:101E8000DB6803F4E0620449044B1343CB60BFF307
:101E90004F8F00BFFEE700BF00ED00E00400FA0531
:101EA00080B483B000AF786039601B4A3B685360F0
:101EB000194A7B6813607B6803F58073164A936048
:101EC0007B6803F56873144AD3607B6803F540733D
:101ED000114A13617B6803F558730F4A53617B689D
:101EE00003F5C0730C4A93617B6803F578730A4A63
:101EF000D3617B6803F53073074A13627B6803F58F
:101F00007073054A5362044B002283F8442000BFDB
:101F10000C37BD4680BC70472407002080B483B0D6
:101F200000AF03460A46FB711346BB71FB79852B54
:101F300041DC812B08DA422B31D0422B3BDC032BD6
:101F400020DC002B10DA36E0813B042B33D801A2D1
:101F500052F823F0A31F0008A71F0008AB1F0008BA
:101F6000AF1F0008B31F0008032B24D801A252F8AA
:101F700023F000BF8B1F00088F1F0008931F00086D
:101F8000971F0008412B08D015E00E4B14E00E4BB4
:101F900012E00E4B10E00E4B0EE00E4B0CE00E4B21
:101FA0000AE00E4B08E00E4B06E00E4B04E00E4B31
:101FB00002E00E4B00E0002318460C37BD4680BC03
:101FC000704700BFBD230008C12400080F2500088A
:101FD0005D25000871250008FD25000899260008E8
:101FE000E32600083127000899270008B1270008D8
:101FF00080B483B000AF03460A46FB711346BB7141
:10200000FB79083B052B1BD801A252F823F000BF37
:10201000292000082D200008312000083520000864
:10202000392000083D200008084B0AE0084B08E072
:10203000084B06E0084B04E0084B02E0084B00E0C8
:10204000002318460C37BD4680BC7047992800080D
:10205000C9280008F9280008352900086529000862
:102060009529000880B483B000AF03460A46FB718F
:102070001346BB71BB79002B01D10C4B10E0FB79EF
:10208000022B0AD0022B0ADC002B02D0012B02D03B
:1020900005E0074B04E0074B02E0074B00E000239C
:1020A00018460C37BD4680BC704700BFC5290008E4
:1020B000E5290008FB290008112A000880B483B034
:1020C00000AF03460A46FB711346BB71BB79023B66
:1020D000062B19D801A252F823F000BFF9200008FE
:1020E0000921000809210008FD200008012100083D
:1020F0000921000805210008064B06E0064B04E014
:10210000064B02E0064B00E0002318460C37BD46A4
:1021100080BC7047292A0008972A00083D2B000838
:10212000AB2B000880B485B000AF78600B46FB7025
:102130007B681B681B7CFA789A4201D0042316E066
:102140000D4B93F8443083F00103DBB2002B01D038
:1021500005230CE07B685B6801331B78FB60064B52
:102160005B68FA689A4201D0022300E00023184617
:102170001437BD4680BC70472407002080B594B05A
:1021800000AF01F0C1F903468749184601F01FFE70
:102190000346012B40F00381844B93F83930012B27
:1021A00001D10623FCE0814B9A6A804B1B683A649C
:1021B000FB633B6C23F01F03BB633B6C03F01F030B
:1021C0007B63FA6B7B6B9A4205D07B6B002B02D052
:1021D0004FF0FF3322E0BB6BB3F5687F16D0BB6BCB
:1021E000B3F5687F18D8BB6BB3F5587F12D0BB6BC3
:1021F000B3F5587F10D8BB6BB3F5807F04D0BB6BB1
:10220000B3F5407F04D007E0002307E0012305E099
:10221000022303E0032301E04FF0FF33FB64FB6C78
:10222000002B01DA0223BBE0604B93F83820604BAF
:10223000BB62604B7B62134687F8233097F82330EC
:10224000082B28BF082387F8223097F82230002B6C
:1022500002D07B6A002B01D100233DE0BB6A1B68E2
:10226000BB60BB6A04331B687B60BB68FB61FB69B6
:102270001BBABB607B68BB61BB691BBA7B6097F80C
:102280002230042B28BF0423FB75FA7D07F10803D5
:102290001946786A04F026F997F82230042B09D9F8
:1022A0007B6A181D97F82230043B1A463B1D1946DD
:1022B00004F018F997F82230072B0BD897F8223042
:1022C0007A6AD01897F82230C3F108031A46002121
:1022D00004F07EF997F8223087F84B30334B93F8AF
:1022E0003C10324B93F83820FB6C3B630B4687F86D
:1022F0002F30134687F82E303B6B002B02DB3B6BF5
:10230000032B01DD002336E03B6B032B32D801A207
:1023100052F823F025230008392300084D23000834
:102320006123000897F82E2097F82F3011461846A1
:10233000FFF7F4FD03461EE097F82E2097F82F30A4
:1023400011461846FFF78EFE034614E097F82E203C
:1023500097F82F3011461846FFF74AFE03460AE069
:1023600097F82E2097F82F3011461846FFF7A6FE53
:10237000034600E000237B647B6C002B01D1072324
:102380000EE00D4A07F10C0392E8030083E8030016
:1023900007F10C027B6C10469847034600E00823C7
:1023A00018465037BD4680BD4C070020240700204A
:1023B00054070020600700208866000880B590B0B0
:1023C00002AF78607B681B681B7C022B01D0042362
:1023D0006FE07B685B685B7887F8373097F8373059
:1023E000013B042B18D801A252F823F01D24000849
:1023F0000124000819240008052400080F240008FF
:10240000FFF738FD2D4B012283F8442007E02B4BCA
:10241000002283F8442002E003234AE000BF01F0D9
:102420002BF838633B6BDB6887F82F303B6B1B69FD
:1024300087F82E3097F82F301A0497F82E301B02A9
:102440001343BB621D4B93F84430002B01D0012392
:1024500000E00023BA6A1343BB623B6B9B681B0618
:102460007B62164B996907F108000023019305234D
:1024700000937B6ABA6A01F043FC07F10803FB6131
:10248000FB69002B01D100230CE001F047F8034663
:10249000F969184601F058FC0346012B01D10123CC
:1024A00000E0002383F00103DBB287F8233097F8C4
:1024B000233018463837BD4680BD00BF24070020B2
:1024C00080B586B000AF786003217868FFF72AFEF8
:1024D0000346FB75FB7D002B01D0FB7D13E07B6881
:1024E0005B6802331B783B6100F0C6FFF8603A6915
:1024F0000121F86801F002FFB860B86800F0A4FBA1
:1025000000F01EFF002318461837BD4680BD80B579
:1025100086B000AF786003217868FFF703FE0346BA
:10252000FB75FB7D002B01D0FB7D13E07B685B68B6
:1025300002331B783B6100F09FFFF8603A6902218B
:10254000F86801F0DBFEB860B86800F07DFB00F0D1
:10255000F7FE002318461837BD4680BD80B483B00F
:1025600000AF7860002318460C37BD4680BC70472A
:1025700080B586B000AF78607B681B681B7C062B3B
:1025800001D0042334E01C4B93F8443083F0010362
:10259000DBB2002B01D005232AE07B685B680233A5
:1025A0001B781A067B685B6803331B781B041A438D
:1025B0007B685B6804331B781B0213437A6852689C
:1025C0000532127813437B617B685B685B78FB7430
:1025D00000F052FFF860FB7C7A691946F86801F058
:1025E0008DFEB860B86800F02FFB00F0A9FE002354
:1025F00018461837BD4680BD2407002080B592B02C
:1026000002AF78607B681B681B7C022B01D004231F
:102610003CE000F031FFF8637B685B685B7887F82B
:102620003B3097F83B301946F86B01F080FE786339
:1026300097F83B301A047B6B1B0C134343F0844325
:102640003B637B6B1B04FB623B6BBB62FB6A7B6285
:10265000104B996907F10C000023019306230093A6
:102660007B6ABA6A01F04CFB07F10C033B623B6AE0
:10267000002B09D000F052FF0346396A184601F0DA
:1026800063FB0346012B00E000BF002318464037E0
:10269000BD4680BD2407002080B584B000AF7860BF
:1026A00003217868FFF73EFD0346FB73FB7B002B9D
:1026B00001D0FB7B11E07B685B6802331B78BB7346
:1026C000BB7B022B08D800F0D7FE0346184601F06A
:1026D000FFFD00BF002300E0032318461037BD466E
:1026E00080BD80B586B000AF786003217868FFF7C1
:1026F00019FD0346FB75FB7D002B01D0FB7D13E02C
:102700007B685B6802331B783B6100F0B5FEF860C4
:102710003A690421F86801F0F1FDB860B86800F08A
:1027200093FA00F00DFE002318461837BD4680BD11
:1027300080B586B000AF786003217868FFF7F2FCBF
:102740000346FB75FB7D002B01D0FB7D1DE00023C4
:102750003B617B685B6802331B78FB73FB7B012B5F
:1027600012D800F089FE0346184601F0B1FD386129
:10277000386900F069FA00F0E3FD00BF054B012263
:1027800083F84420002300E0032318461837BD4691
:1027900080BD00BF2407002080B582B000AF786004
:1027A00000F0AAFA002318460837BD4680BD000095
:1027B00080B586B000AF786004217868FFF7B2FC7E
:1027C0000346FB74FB7C002B01D0FB7C5EE07B6846
:1027D0005B6802331B78BB747B685B6803331B78D0
:1027E0007B7400F049FEF86000237B61BB7C102BFA
:1027F00039D801A252F823F03D28000843280008E8
:10280000492800084F280008552800085B280008C0
:10281000672800086728000867280008672800085C
:10282000672800086728000867280008672800084C
:102830006728000867280008612800080E237B61CC
:1028400013E00F237B6110E011237B610DE0122365
:102850007B610AE013237B6107E014237B6104E0C2
:1028600010237B6101E0032310E07B7C1A46796929
:10287000F86801F043FDB860B86800F0E5F900F0D1
:102880005FFD044B012283F84420002318461837CB
:10289000BD4680BD2407002080B582B000AF7860BF
:1028A0007B681B681B7C022B01D0042308E07B683B
:1028B0005B6801331B781946002002F00FFE0023ED
:1028C00018460837BD4680BD80B582B000AF78603D
:1028D0007B681B681B7C022B01D0042308E07B680B
:1028E0005B6801331B781946012002F0F7FD0023D5
:1028F00018460837BD4680BD80B584B000AF78600B
:102900007B681B681B7C022B01D004230EE07B68D4
:102910005B6801331B78002B14BF01230023DBB25B
:10292000FB73FB7B184602F089FE00231846103724
:10293000BD4680BD80B582B000AF78607B681B6803
:102940001B7C022B01D0042308E07B685B68013309
:102950001B781946002002F025FE00231846083790
:10296000BD4680BD80B582B000AF78607B681B68D3
:102970001B7C022B01D0042308E07B685B680133D9
:102980001B781946012002F00DFE00231846083777
:10299000BD4680BD80B582B000AF78607B681B68A3
:1029A0001B7C022B01D0042308E07B685B680133A9
:1029B0001B781946022002F091FD002318460837C3
:1029C000BD4680BD80B582B000AF786000F052FA9D
:1029D00000F0C4FA012000F007FB00231846083776
:1029E000BD4680BD80B582B000AF786000F042FA8D
:1029F000002318460837BD4680BD80B582B000AFC1
:102A0000786000F0ABFA002318460837BD4680BD59
:102A100080B582B000AF7860012000F0E5FA0023B5
:102A200018460837BD4680BD80B586B000AF7860D7
:102A30007B685B681B78FB747B685B685B78BB7446
:102A400000F01AFDF86000237B61FB7C102B0CD09A
:102A5000102B0DDC002B02D0012B03D008E00B2340
:102A60007B6107E00C237B6104E00D237B6101E0C7
:102A700003230CE0BB7C1A467969F86801F03EFC40
:102A8000B860B86800F0E0F800F05AFC002318467F
:102A90001837BD4680BD80B586B000AF78607B68D2
:102AA0005B681B78FB74FB7C022B42D17B685B6804
:102AB0001B79BB747B685B689B787B747B685B6805
:102AC0005B783B7400F0D8FCF86000237B61BB7C32
:102AD0001A460A21F86801F011FC0346002B02D0C7
:102AE0007B6901337B617B7C1A460721F86801F022
:102AF00005FC0346002B02D07B6901337B613B7CE4
:102B00001A460621F86801F0F9FB0346002B02D0B3
:102B10007B6901337B617B69032B03D1012000F0CA
:102B200093F802E0002000F08FF800F009FC002389
:102B300000E0032318461837BD4680BD80B586B037
:102B400000AF78607B685B681B78FB747B685B68B0
:102B50005B79BB7400F090FCF86000237B61FB7C28
:102B6000032B0CD0032B0DDC002B02D0012B03D048
:102B700008E008237B6107E009237B6104E005236B
:102B80007B6101E003230CE0BB7C1A467969F8689D
:102B900001F0B4FBB860B86800F056F800F0D0FB64
:102BA000002318461837BD4680BD80B588B000AFF9
:102BB00078607B685B681B78FB77FB7F552B01D0C7
:102BC00003233CE07B685B6801331B781A047B6855
:102BD0005B6802331B781B0213437A685268033226
:102BE00012781343BB617B685B6804331B781A0659
:102BF0007B685B6805331B781B041A437B685B6842
:102C000006331B781B0213437A6852680732127826
:102C100013437B6100F03AFC03467A69B9691846B0
:102C2000FEF756FF0346FB74FB7C012B0CBF012310
:102C30000023DBB2FB60F86800F006F800231846BA
:102C40002037BD4680BD000080B58CB002AF7860F3
:102C50007B68012B01D1264B01E04FF0F7737B62BB
:102C6000244B996907F10800002301930223009384
:102C700000237A6A01F044F807F108033B623B6ADB
:102C8000002B09D000F04AFC0346396A184601F0CF
:102C90005BF80346012B00E000BF7B68012B02D1EB
:102CA0004FF0D57301E04FF097737B62114B996938
:102CB00007F10800002301930223009300237A6A9E
:102CC00001F01EF807F10803FB61FB69002B09D036
:102CD00000F024FC0346F969184601F035F8034674
:102CE000012B00E000BF00BF2837BD4680BD00BFFC
:102CF000000055012407002080B58EB002AF00F01F
:102D0000BBFBF862FB6A5B691A04FB6A9B691B02E6
:102D10001A43FB6ADB69134343F00443BB62FB6A5B
:102D20001B6A1A06FB6A5B6A1B041A43FB6A9B6AEE
:102D30001B0213437B624E4B996938460023019373
:102D4000072300937B6ABA6A00F0DAFF3B467B6197
:102D50007B69002B09D000F0E1FB03467969184636
:102D600000F0F2FF0346012B00E000BFFB6ADB6AC4
:102D70001A04FB6A1B6B1B021A43FB6A9B6B13430F
:102D800043F00443BB62FB6ADB6B1B067B62384B80
:102D90009969384600230193052300937B6ABA6A38
:102DA00000F0AEFF3B46BB61BB69002B09D000F0D1
:102DB000B5FB0346B969184600F0C6FF0346012B70
:102DC00000E000BFFB6A5B6B1A04FB6A1B6C1B0212
:102DD000134343F00443BB62254B996938460023F3
:102DE0000193032300930023BA6A00F089FF3B4656
:102DF000FB61FB69002B09D000F090FB0346F969E9
:102E0000184600F0A1FF0346012B00E000BFFB6A5B
:102E10005B6C1A04FB6A9B6C1B021A43FB6ADB6C3B
:102E2000134343F00443BB62FB6A1B6D1B067B62CA
:102E30000F4B9969384600230193062300937B6A60
:102E4000BA6A00F05DFF3B463B623B6A002B09D04B
:102E500000F064FB0346396A184600F075FF03462C
:102E6000012B00E000BF00BF3037BD4680BD00BF72
:102E70002407002080B58CB002AF0023BB6107F1AE
:102E800018031946002000F033FA07F11803023343
:102E90001946012000F02CFAFB7E1A46BB7E1B026D
:102EA0001A437B7E1B041A433B7E1B0613437B6243
:102EB000294BD969381D0023019304230093002373
:102EC0007A6A00F01DFF3B1DFB61FB69002B09D0F6
:102ED00000F024FB0346F969184600F035FF03466D
:102EE000012B00E000BF07F118030422002118465F
:102EF00003F06EFB07F118031946022000F0F8F901
:102F0000FB7E1A46BB7E1B021A437B7E1B041A43C0
:102F10003B7E1B0613437B620F4BD969381D002390
:102F200001930223009300237A6A00F0E9FE3B1D1F
:102F30003B623B6A002B09D000F0F0FA0346396A85
:102F4000184600F001FF0346012B00E000BF00BF60
:102F50002837BD4680BD00BF2407002080B58CB057
:102F600002AF00237B610023BB6107F11403184605
:102F700000F096FAFB7D1A46BB7D1B021A437B7D4F
:102F80001B041A433B7D1B0613437B62FB7E1A46E0
:102F9000BB7E1B021A437B7E1B041A433B7E1B062F
:102FA00013433B620F4B596A3846002301930823B1
:102FB00000933B6A7A6A00F0A3FE3B46FB61FB6923
:102FC000002B09D000F0AAFA0346F969184600F070
:102FD000BBFE0346012B00E000BF00BF2837BD4603
:102FE00080BD00BF2407002080B592B002AF034629
:102FF000FB71002387F823300023FB61FB7907F185
:10300000230207F11C00042101F086FD034687F826
:103010003330B64B1B6AFB6297F83330002B00F05D
:103020006081002387F83F3053E1082387F83E3062
:103030000023BB6300237B6397F83F30DB0087F8F6
:103040002B3097F83F2097F83330013B9A4240F0FD
:10305000D38097F8233087F83E3097F83E30023B14
:10306000062B00F2138101A252F823F089300008E8
:103070008D320008AD3000088D320008F7300008AE
:103080008D3200086531000897F82B30013307F1C5
:103090001C0213441B781A0497F82B3007F11C010B
:1030A0000B441B781B061343BB63F0E097F82B30EF
:1030B000033307F11C0213441B78194697F82B3091
:1030C000023307F11C0213441B781B0241EA03027E
:1030D00097F82B30013307F11C010B441B781B04BC
:1030E0001A4397F82B3007F11C010B441B781B0681
:1030F0001343BB63CBE097F82B30033307F11C027B
:1031000013441B78194697F82B30023307F11C0241
:1031100013441B781B0241EA030297F82B3001335A
:1031200007F11C010B441B781B041A4397F82B3042
:1031300007F11C010B441B781B061343BB6397F874
:103140002B30053307F11C0213441B781A0497F83F
:103150002B30043307F11C010B441B781B0613436F
:103160007B6394E097F82B30033307F11C02134480
:103170001B78194697F82B30023307F11C021344D1
:103180001B781B0241EA030297F82B30013307F149
:103190001C010B441B781B041A4397F82B3007F1D2
:1031A0001C010B441B781B061343BB6397F82B30A1
:1031B000073307F11C0213441B78194697F82B308C
:1031C000063307F11C0213441B781B0241EA030279
:1031D00097F82B30053307F11C010B441B781B04B7
:1031E0001A4397F82B30043307F11C010B441B786A
:1031F0001B0613437B634AE097F82B30033307F138
:103200001C0213441B78194697F82B30023307F140
:103210001C0213441B781B0241EA030297F82B306F
:10322000013307F11C010B441B781B041A4397F868
:103230002B3007F11C010B441B781B061343BB63A7
:1032400097F82B30073307F11C0213441B781946FB
:1032500097F82B30063307F11C0213441B781B022E
:1032600041EA030297F82B30053307F11C010B44A8
:103270001B781B041A4397F82B30043307F11C0109
:103280000B441B781B0613437B6300E000BF07F170
:1032900008000023019397F83E3000937B6BBA6BD4
:1032A000F96A00F02DFD07F108037B627B6A002BB1
:1032B00009D000F033F90346796A184600F044FD5E
:1032C0000346012B00E000BF97F83F30013387F839
:1032D0003F3097F83F2097F833309A42FFF4A5AE7D
:1032E00000E000BF4037BD4680BD00BF240700207E
:1032F00080B485B000AF03463960FB71FB790E4A9C
:1033000032F813309BB2C3F30A03FB81FB790B4AFB
:10331000D25CFB891B0A9BB2DBB21343DAB23B6877
:103320001A703B680133FA89D2B21A70002318462A
:103330001437BD4680BC70476C070020740700201E
:1033400080B586B000AF01F04BF81422002143484D
:1033500003F03EF90521414801F040F9404800F0F2
:10336000FFFE3B46184601F06BF90346012B01D0E6
:1033700000233B603B689AB23A4B1A80384B5B683B
:103380007B61374B9B683B6139697869FEF788FD43
:103390000121786900F04AF9314801F063FF012109
:1033A000022002F07BF8012002F048F900F064F8F6
:1033B00003465B6CFB7300F05FF803469B6CBB73CA
:1033C000274801F05DF9FB7B274A1946002001F0F0
:1033D000DFF9BB7B254A1946012001F0D9F92448C1
:1033E00002F064FA00F086F803460821184602F05D
:1033F0007FFB204B5B68BB6000F03EF803465B6FD1
:10340000FB7100F039F803461B6FBB7100F034F814
:1034100003469B6E7B7100F02FF80346DB6E3B7119
:10342000FB791946B868FEF7ADFCBB791946B86858
:10343000FEF7B7FC7B791946B868FEF7C4FC3B7908
:103440001946B868FEF7E1FC0A4800F083FF002047
:1034500002F0F4F800BF1837BD4680BD78070020A1
:103460008C0700208C080020A866000890660008E1
:10347000380600207806002080B400AF024B1846C2
:10348000BD4680BC704700BF8C07002080B400AFF1
:10349000024B1846BD4680BC704700BF4C0600205A
:1034A00080B483B000AF78607B68002B01D101232A
:1034B00007E07B6805491A460B4603CB1060516054
:1034C000002318460C37BD4680BC7047900800208A
:1034D00080B483B000AF064B1B78FB71044B002215
:1034E0001A70FB7918460C37BD4680BC704700BF88
:1034F0009808002080B400AF024B1846BD4680BC3F
:10350000704700BF9008002080B400AF024B1846FF
:10351000BD4680BC704700BFA408002080B400AF47
:10352000024B1846BD4680BC704700BFA80C002067
:1035300080B487B000AF7860FF233B6100237B61DC
:1035400016E0104A7B6952F82330FB607B68FA680A
:10355000103253F82230BB60BB6803F00303002B2A
:1035600003D1FB683B613B6906E07B6901337B610A
:103570007B690F2BE5DD3B6918461C37BD4680BCD7
:10358000704700BFC006002080B500AF01214FF09A
:103590000050FDF74FFC1748FDF7D6FA154B4022B7
:1035A0001A80144B01229A70124B02221A72114B8C
:1035B00001229A720F4B03225A720E490E48FDF7F0
:1035C000BDF90C48FDF7C0FA0A4B80221A80094B5E
:1035D00000229A70074B02221A72064B01229A723D
:1035E000044B03225A7203490348FDF7A7F900BFB1
:1035F00080BD00BFAC10002000800A4080B586B0BE
:1036000000AFF860B9607A603B607B683B613B6803
:103610007B61BB6807F1100219464FF08040FCF750
:103620004CFF00BF1837BD4680BD000080B584B098
:1036300000AF78600B46FB7000214FF08040FDF733
:103640005CF8C54B4FF080421A60FFF79DFF0121E7
:103650000120FDF7EFFB00214FF08040FDF70EF950
:103660004FF08040FCF76CFE00221F214FF080409D
:10367000FCF73DFFB948FCF7F4FEB84B00221A7086
:10368000B64B00225A70B54B00229A70B34B002201
:10369000DA70B24B4FF440325A60B04B4FF44012E4
:1036A0009A60AE4B4FF44002DA60AC4B4FF0806250
:1036B0001A61AA4B00225A61A84B04221A83A74917
:1036C0004FF08040FCF76CFE01214FF08040FDF789
:1036D00014F8012207214FF08040FCF708FF002377
:1036E000FB606BE29E4AFB6852F82330012202FA2B
:1036F00003F3012219464FF08040FDF75AF8994A2A
:10370000FB6852F82330012202FA03F30122194622
:103710004FF08040FDF70EF8924AFB6852F82330D4
:10372000002219464FF08040FCF752FFFB78002B37
:1037300040F01A81FB680F2B00F23A8201A252F886
:1037400023F000BF85370008A1370008BD37000807
:10375000D9370008F7370008153800083138000855
:103760004F3800086D38000889380008A73800086D
:10377000C5380008E3380008013900081F3900087F
:103780003B390008774AFB6852F8233019464FF658
:10379000FF734FF482524FF08040FFF72FFF0AE291
:1037A000704AFB6852F8233019464FF6FF734FF406
:1037B00082524FF08040FFF721FFFCE1694AFB682D
:1037C00052F8233019464FF6FF734FF4A0524FF0D2
:1037D0008040FFF713FFEEE1624AFB6852F82330A6
:1037E00019467B6803F5A0524FF6FF734FF08040F7
:1037F000FFF704FFDFE15B4AFB6852F8233019460C
:103800007B6803F5A0524FF6FF734FF08040FFF73F
:10381000F5FED0E1534AFB6852F8233019464FF6C3
:10382000FF734FF4A8524FF08040FFF7E7FEC2E16C
:103830004C4AFB6852F8233019467B6803F5A852BE
:103840004FF6FF734FF08040FFF7D8FEB3E1454AD3
:10385000FB6852F8233019467B6803F5A8524FF6EF
:10386000FF734FF08040FFF7C9FEA4E13D4AFB68BB
:1038700052F8233019464FF6FF734FF4B0524FF011
:103880008040FFF7BBFE96E1364AFB6852F82330D2
:1038900019467B6803F5B0524FF6FF734FF0804036
:1038A000FFF7ACFE87E12F4AFB6852F82330194638
:1038B0007B6803F5B0524FF6FF734FF08040FFF77F
:1038C0009DFE78E1274AFB6852F8233019467B6851
:1038D00003F5B0524FF6FF734FF08040FFF78EFEB6
:1038E00069E1204AFB6852F8233019467B6803F5EA
:1038F000B0524FF6FF734FF08040FFF77FFE5AE162
:10390000184AFB6852F8233019467B6803F5B05219
:103910004FF6FF734FF08040FFF770FE4BE1114A06
:10392000FB6852F8233019464FF6FF734FF4B85234
:103930004FF08040FFF762FE3DE10A4AFB6852F813
:10394000233019467B6803F5B8524FF6FF734FF0EA
:103950008040FFF753FE2EE1D4100020B810002065
:10396000C006002080060020FB680F2B00F2228199
:1039700001A252F823F000BFB9390008D33900087A
:10398000ED3900080F3A0008313A0008533A0008B0
:103990006D3A00088F3A0008B13A0008CB3A0008A7
:1039A000ED3A00080F3B0008313B00084B3B000894
:1039B0006D3B00088F3B0008854AFB6852F82330B6
:1039C0001946844B4FF080624FF08040FFF716FE9F
:1039D000F1E07F4AFB6852F8233019467D4B4FF0E7
:1039E00080624FF08040FFF709FEE4E0784AFB6810
:1039F00052F8233019467B6803F580739B04754A9F
:103A00001A40744B4FF08040FFF7F8FDD3E0704A46
:103A1000FB6852F8233019467B6803F580739B04DA
:103A20006C4A1A406B4B4FF08040FFF7E7FDC2E055
:103A3000674AFB6852F8233019467B6803F58073A8
:103A40009B04644A1A40634B4FF08040FFF7D6FD59
:103A5000B1E05F4AFB6852F8233019465D4B4FF0E6
:103A600068624FF08040FFF7C9FDA4E0584AFB6848
:103A700052F8233019467B6803F568739B04554A56
:103A80001A40544B4FF08040FFF7B8FD93E0504A86
:103A9000FB6852F8233019467B6803F568739B0472
:103AA0004C4A1A404B4B4FF08040FFF7A7FD82E095
:103AB000474AFB6852F823301946464B4FF04062A4
:103AC0004FF08040FFF79AFD75E0414AFB6852F8DD
:103AD000233019467B6803F540739B043D4A1A4026
:103AE0003C4B4FF08040FFF789FD64E0384AFB68AB
:103AF00052F8233019467B6803F540739B04354A1E
:103B00001A40344B4FF08040FFF778FD53E0304AC5
:103B1000FB6852F8233019467B6803F540739B0419
:103B20002C4A1A402B4B4FF08040FFF767FD42E0D4
:103B3000274AFB6852F823301946264B4FF058624B
:103B40004FF08040FFF75AFD35E0214AFB6852F8FC
:103B5000233019467B6803F540739B041D4A1A40C5
:103B60001C4B4FF08040FFF749FD24E0184AFB68EA
:103B700052F8233019467B6803F558739B04154AA5
:103B80001A40144B4FF08040FFF738FD13E0104A05
:103B9000FB6852F8233019467B6803F558739B0481
:103BA0000C4A1A400B4B4FF08040FFF727FD02E014
:103BB00000BF00E000BFFB680133FB60FB680F2B18
:103BC0007FF790AD00BF00BF1037BD4680BD00BF7E
:103BD000800600200000FC1F80B586B000AF0023E7
:103BE0007B6148E02E4A7B6952F8233019464FF03A
:103BF0008040FCF7FFFD0346012B12D1284A7B6968
:103C000052F8233019464FF08040FCF75CFD244AFF
:103C10007B6952F82330022219464FF08040FCF7AE
:103C200007FE204A7B6952F8233019464FF0804046
:103C3000FCF7A1FD0346012B1AD11A4A7B6952F801
:103C40002330012219464FF08040FCF7F1FD154A60
:103C50007B6952F823303A4619464FF08040FCF712
:103C6000D4FC3B461946104800F0E5F80346FB74C7
:103C70007B6901337B617B690F2BB3DD4FF08043A0
:103C80005B6803F4C053002B14BF01230023DBB295
:103C90001A46064B1A6000BF1837BD4680BD00BFEC
:103CA000C006002080060020A4080020A0080020F4
:103CB00080B586B000AF78600FE04FF08040FFF72E
:103CC00037FC03460D4A13600C4B1B6807F10802D2
:103CD00019464FF08040FCF727FCFFF71FFC024617
:103CE00007F108031946104600F056F90346012B68
:103CF000E3D000BF00BF1837BD4680BD9C08002040
:103D000080B485B000AFF860B9607A603B60FB6852
:103D1000BA681A60FB687A689A60FB683A68DA6089
:103D2000FB683A7E1A74FB683A7F5A74FB6800227B
:103D30009A74FB680022DA74FB6800225A6000BFA4
:103D40001437BD4680BC7047B0B485B000AF786012
:103D500039607B68B3F8FC330133FB81FB89322B7C
:103D600001D90023FB817B68B3F8FE33FA899A42BC
:103D700012D17B68B3F8003443F001039AB27B6838
:103D8000A3F800247B68B3F8023401339AB27B684D
:103D9000A3F80224002315E07B68B3F8FC3319462E
:103DA0007A680B469B000B449B001A443B68144600
:103DB0001D460FCD0FC42B6823607B68FA89A3F8DA
:103DC000FC23012318461437BD46B0BC7047B0B47D
:103DD00085B000AF786039607B68B3F8FC237B68FE
:103DE000B3F8FE339A4201D100231FE07B68B3F899
:103DF000FE330133FB81FB89322B01D90023FB8188
:103E00007B68B3F8FE33194638687A680B469B0026
:103E10000B449B00134404461D460FCD0FC42B6872
:103E200023607B68FA89A3F8FE2301231846143720
:103E3000BD46B0BC704790B585B000AF78603960C2
:103E40007B68B3F8FC330133FB81FB89322B01D94A
:103E50000023FB817B68B3F8FE33FA899A4212D1C2
:103E60007B68B3F8003443F001039AB27B68A3F88F
:103E700000247B68B3F8023401339AB27B68A3F85C
:103E80000224002384E03B689A687B68B3F8FC3323
:103E90001C46104601F040FC01467A6823469B0010
:103EA00023449B001344083319603B68DA687B683D
:103EB000B3F8FC331C46104601F02EFC01467A682C
:103EC00023469B0023449B0013440C3319607B68FA
:103ED000B3F8FC3319463B6898797A680B469B0027
:103EE0000B449B001344103302461A703B685B7905
:103EF000002B10D13B681B689B0C7A68B2F8FC233E
:103F00001046C3F30A02796803469B0003449B00F2
:103F10000B441A600CE07B68B3F8FC3318463B682E
:103F20001A68796803469B0003449B000B441A609F
:103F30007B68B3F8FC3319463B6858797A680B46BE
:103F40009B000B449B001344113302461A707B689C
:103F5000B3F8FC3319463B6818797A680B469B0026
:103F60000B449B001344133302461A707B68B3F86A
:103F7000FC3319467A680B469B000B449B001344A4
:103F8000123300221A707B68FA89A3F8FC230123FC
:103F900018461437BD4690BD80B584B000AF786038
:103FA00039607B68B3F8FC237B68B3F8FE339A4230
:103FB00001D1002388E07B68B3F8FE330133FB8135
:103FC000FB89322B01D90023FB817B68B3F8FE33D8
:103FD00019467A680B469B000B449B001344083338
:103FE0001B68184601F098FB02463B689A607B68A4
:103FF000B3F8FE3319467A680B469B000B449B00CE
:1040000013440C331B68184601F086FB02463B68DC
:10401000DA607B68B3F8FE3319467A680B469B007A
:104020000B449B00134410331A783B689A717B68E9
:10403000B3F8FE3319467A680B469B000B449B008D
:10404000134411331B78002B10D17B68B3F8FE3377
:1040500019467A680B469B000B449B0013441B686F
:104060009A041B4B13403A6813600CE07B68B3F86A
:10407000FE3319467A680B469B000B449B001344A1
:104080001A683B681A607B68B3F8FE3319467A6891
:104090000B469B000B449B00134411331A783B687A
:1040A0005A717B68B3F8FE3319467A680B469B0059
:1040B0000B449B00134412331A783B681A717B68D7
:1040C000FA89A3F8FE23012318461037BD4680BDA8
:1040D0000000FC1F80B500AFFCF75EFD0120FCF77F
:1040E000E7FDFCF7F5FD0346012B33D10120FCF77A
:1040F00095FDFCF7B9FD0346012B2DD109210220C6
:10410000FCF70AFE0120FCF74FFEFCF7ADFD03466D
:10411000012B1DD10020FCF757FE0120FCF734FED7
:1041200001210820FCF786FE1820FCF7F7FB002190
:104130000820FCF77FFE01214FF00060FCF77AFEBB
:104140003620FCF7E3F84FF48070FCF759FE03E0EB
:10415000002302E0002300E00123184680BD000098
:1041600080B584B000AF7860786800F09FF8F860A0
:104170007B681B683C4A934265D0786800F096F8EB
:10418000F8607B681B68384A93425CD07B68364A8B
:104190001A607B6801225A607B6801229A607B6802
:1041A0006022DA607B688E221A617B6800225A6185
:1041B0007B68FF229A617B687F22DA617B6800223C
:1041C0001A627B68FF225A627B687F229A627B6850
:1041D0000122DA627B6801221A637B6801225A633A
:1041E0007B6808229A637B680922DA637B680A226B
:1041F0001A647B6800225A647B6801229A647B6897
:104200000222DA647B6803221A657B6805225A65FC
:104210007B6806229A657B687F22DA657B68FF22CD
:104220001A667B6800225A667B686F229A667B68F2
:104230004922DA667B6808221A677B6880225A67FF
:10424000786800F013F80123FB60786800F02EF81E
:104250007B681B68044A934201D00023FB60FB6823
:1042600018461037BD4680BD7C5654E280B584B0F8
:1042700000AF78600C4802F003FA40210A4800F0D1
:10428000B7F87B6840221946074802F0F5F9F86054
:104290007B6840221946044800F0FDF8F860FB688E
:1042A00018461037BD4680BD00E0010880B584B0D7
:1042B00000AF78607B6840221946044800F05CF942
:1042C000F860012318461037BD4680BD00E00108A4
:1042D00080B582B000AF7860074802F0D1F9402184
:1042E000054800F085F87868FFF7E0FF03461846B8
:1042F0000837BD4680BD00BF00E0010880B586B02C
:1043000000AFF860B9607A60BB68002B01D1002370
:1043100009E0FB68BA68796843F82210F868FFF78B
:10432000A5FF78617B6918461837BD4680BD80B50A
:1043300084B000AF786039607868FFF7B7FF3B68FA
:10434000DAB27B6853F82230FB60FB6818461037FE
:10435000BD4680BD80B584B000AF78607B68002B1F
:1043600038D07B681B68002B34D07B681B681846EC
:1043700000F09EFC7B681B680121184600F06FFD71
:104380000023FB6004E000BF00BFFB680133FB605B
:10439000FB68124A9342F6D97B681B6800211846D5
:1043A00000F05DFD0023BB6004E000BF00BFBB6800
:1043B0000133BB60BB68094A9342F6D97B681B682E
:1043C0000121184600F04BFD7B685B681846FDF73D
:1043D0001BFA00E000BF1037BD4680BD2FAA0C00BD
:1043E00080B500AF01210820FCF724FD00BF80BD8F
:1043F0002DE9F04387B000AF786039606B461E4608
:1044000001233B6139684B1EFB600A46002390463E
:1044100099464FF000024FF000034FEA491343EA78
:10442000D8634FEA48120A46002314461D464FF04F
:1044300000024FF000036B0143EAD46362010B46B4
:104440009B000733DB08DB00ADEB030D6B4603334A
:104450009B089B00BB603A68B968786800F08CF8EC
:1044600000237B610CE0BB687A6953F82230B3F11A
:10447000FF3F02D000233B6106E07B6901337B6193
:104480007A693B689A42EEDB3B69B54618461C37B1
:10449000BD46BDE8F08380B5ADF5804D86B000AF78
:1044A00007F1180343F80C0C07F1180343F8101C2C
:1044B00007F1180343F8142C012307F5804202F199
:1044C0001402136007F118031A4607F11803083B9A
:1044D00007F11801084652F8142C194650F80C0C34
:1044E00000F04AF8002307F5804202F11002136041
:1044F0002BE007F118031A4607F5804303F1100378
:104500001B689B00134453F8082C07F5804303F104
:1045100010031B689B0007F1180151F8101C0B4495
:104520001B689A4206D0002307F5804202F114026C
:10453000136015E007F5804303F110031B68013396
:1045400007F5804202F11002136007F1180307F526
:10455000804202F11002126853F8143C9A42C8DB00
:1045600007F5804303F114031B68184607F58047DD
:104570001837BD4680BD000090B589B000AFF86027
:10458000B9607A600123BB61BB6983F3138800BF04
:104590000023FB6110E0FB699B001A46FB68D01802
:1045A000FB699B00BA68D41800210B4B984703465F
:1045B0002360FB690133FB61FA697B689A42EADB9D
:1045C00000237B617B6983F3138800BF01231846B6
:1045D0002437BD4690BD00BF3901002090B587B09B
:1045E00000AF7860396001233B613B6983F3138836
:1045F00000BF00237B6112E07B6903F1007303F5C8
:104600007F739B0018467B699B007A68D418002151
:104610000A4B9847034623607B6901337B617A69C3
:104620003B689A42E8DB0023FB60FB6883F3138856
:1046300000BF012318461C37BD4690BD390100203C
:1046400080B584B000AF78600123BB60BB6883F3A2
:10465000138800BF00210848084B984702467B6832
:104660001A600023FB60FB6883F3138800BF0123FB
:1046700018461037BD4680BDFCCF01083901002027
:1046800080B483B000AF00237B6075E07B68D8B254
:104690003E497A681346DB0013449B000B440246F4
:1046A0001A707B68DBB2DB00D8B238497A681346EF
:1046B000DB0013449B000B44013302461A7033495C
:1046C0007A681346DB0013449B000B44023302223A
:1046D0001A702E497A681346DB0013449B000B4482
:1046E000033300221A7029497A681346DB00134409
:1046F0009B000B44043300221A8024497A68134635
:10470000DB0013449B000B44063300221A701F4940
:104710007A681346DB0013449B000B4409330022E4
:104720001A701A497A681346DB0013449B000B4445
:104730000A3300221A7015497A681346DB001344C5
:104740009B000B440C3300221A6010497A68134610
:10475000DB0013449B000B44183300221A600B4902
:104760007A681346DB0013449B000B440733002296
:104770001A707B6801337B607B68012B86DD002328
:1047800018460C37BD4680BC704700BFDC100020C7
:1047900080B582B000AF03463A60FB710B46BB7137
:1047A0003B68002B01D101233FE0FB79012B01D9AC
:1047B00001233AE0BB79DB00FA79D8B21D491346F0
:1047C000DB0013449B000B44013302461A70FA7954
:1047D00018491346DB0013449B000B4408333A6826
:1047E000043307CA83E80700FA7912491346DB004D
:1047F00013449B000B4414333A6804330C3207CA49
:1048000083E80700386800F0EEFA3B680C3318467E
:1048100000F0E9FAFA7907491346DB0013449B00DC
:104820000B44023300221A70002318460837BD4695
:1048300080BD00BFDC10002080B485B000AF03460F
:10484000FB71FB79022B19D10023FB730023BB60A2
:104850000FE01449BA681346DB0013449B000B4475
:1048600003331B78002B01D00123FB73BB6801339A
:10487000BB60BB68012BECDDFB7B0DE0FA790949DD
:104880001346DB0013449B000B4403331B78002BBF
:1048900001D0012300E0002318461437BD4680BC38
:1048A000704700BFDC10002090B585B000AF00233A
:1048B000FB60C1E06549FA681346DB0013449B00C6
:1048C0000B4402331B78002B40F0B3805F49FA6839
:1048D0001346DB0013449B000B440C331B68002B76
:1048E00000F0A2805949FA681346DB0013449B008C
:1048F0000B4418331B68002B00F09680FA681346AF
:10490000DB0013449B000833504A13440433184619
:1049100000F0E6FA0346002B01D0012300E000235B
:10492000FB72FA681346DB0013449B001433474ABA
:1049300013440433184600F0D3FA0346002B01D089
:10494000012300E00023BB72BB7A5B005AB297F9E7
:104950000B3013435BB27B72FA681346DB001344DF
:104960009B003A4A13447A7A1146184600F0C8F878
:1049700003463B723B7AFF2B58D03449FA68134602
:10498000DB0013449B000B440A331B783A7A9A42AB
:104990004ED02E49FA681346DB0013449B000B44AB
:1049A0000A3318782949FA681346DB0013449B0040
:1049B0000B4404331C88FA681346DB0013449B0045
:1049C000224A13440733397A224600F041F803465D
:1049D000FB801E49FA681346DB0013449B000B441E
:1049E00004331B88FA889A4213D01849FA68134690
:1049F000DB0013449B000B44033301221A7013495C
:104A0000FA681346DB0013449B000B440433FA8816
:104A10001A800E49FA681346DB0013449B000B44CE
:104A20000A333A7A1A7004E000BF02E000BF00E0E7
:104A300000BFFB680133FB60FB68012B7FF73AAFD7
:104A400000BF00BF1437BD4690BD00BFDC10002082
:104A500080B485B000AF3B600346FB710B46BB7171
:104A60001346BB80FB799B005AB297F9063013437B
:104A70005BB2BB730023FB73BB7B013B0D2B25D8C3
:104A800001A252F823F000BFC14A0008C74A00083B
:104A9000CD4A0008C74A0008CD4A0008CD4A0008A0
:104AA000C14A0008C14A0008CD4A0008CD4A0008A2
:104AB000C74A0008CD4A0008C74A0008C14A000892
:104AC0000123FB7304E0FF23FB7301E0BB8812E0CA
:104AD0003B681B7883F00103DAB23B681A703B68CD
:104AE0001B78002B06D097F90F309AB2BB8813447D
:104AF0009BB200E0BB8818461437BD4680BC7047A7
:104B000080B483B000AF78600B46FB70FB7818462A
:104B10000C37BD4680BC704780B48BB000AFF860E6
:104B20007A601A460B46FB721346BB72FB68002B79
:104B300001D10023B4E0002387F82730002387F851
:104B40002630FB68FB6100233B627CE057493A6AF0
:104B50001346DB0013449B000B4402331B78002BED
:104B60006BD1BB7A83F00103DBB2002B0AD04F4933
:104B70003A6A1346DB0013449B000B4403331B7853
:104B8000012B5CD149493A6A1346DB0013449B0070
:104B90000B4406331B78002B0BD044493A6A13466A
:104BA000DB0013449B000B4404331B88DB439BB2A4
:104BB00008E03E493A6A1346DB0013449B000B446D
:104BC00004331B883B833B8BC3F30A033B8397F877
:104BD00026305B00FB75FB7D5A1CFB7A9A4202DB98
:104BE00097F827305CE031493A6A1346DB001344FA
:104BF0009B000B44013319783B8B1B0A9BB2DAB242
:104C0000FB7DF86903440A43D2B21A70FB7D01337D
:104C1000FA6913443A8BD2B21A7024493A6A13469D
:104C2000DB0013449B000B44033300221A7097F8F7
:104C30002630013387F8263002E000BF00E000BFD5
:104C40003B6A01333B623B6A012B7FF77FAF97F8EA
:104C500026309B0887F8273097F8263003F00303A7
:104C6000FB76FB7E002B0DD097F82730013387F8B9
:104C700027307B68002B11D0FB7E5B00DAB27B68AB
:104C80001A700BE07B68002B08D097F82730002BB8
:104C900001D0082200E000227B681A7097F82730C4
:104CA00018462C37BD4680BC704700BFDC10002082
:104CB00080B485B000AF78607B685B680F2B33D819
:104CC0007B685B68012202FA03F3FB607B681B6868
:104CD000D9687B681B68FA680A43DA607B681B68DE
:104CE00059687B681B68FA680A435A607B685B688E
:104CF0005B00BB607B681B689A690321BB6801FA93
:104D000003F3DB4319467B681B680A409A617B68A2
:104D10001B689A690321BB6801FA03F319467B6893
:104D20001B680A439A6100E000BF1437BD4680BC8F
:104D3000704780B485B000AF78607B685B680F2BEC
:104D40004CD87B685B68012202FA03F3FB607B6846
:104D50005B685B00BB607B681B68D9687B681B680D
:104D6000FA680A43DA607B681B6859687B681B68CD
:104D7000FA680A435A607B681B689A690321BB681A
:104D800001FA03F3DB4319467B681B680A409A610A
:104D90007B681B689A690321BB6801FA03F3194613
:104DA0007B681B680A439A617B681B689A680321C9
:104DB000BB6801FA03F3DB4319467B681B680A40B2
:104DC0009A607B681B689A680321BB6801FA03F349
:104DD00019467B681B680A439A6000E000BF1437DD
:104DE000BD4680BC704780B485B000AF78607B68FA
:104DF0005B680F2B2ED87B685B68012202FA03F3F5
:104E0000FB607B685B685B00BB607B681B68D96884
:104E10007B681B68FA680A43DA607B681B6859681C
:104E2000FB68DA437B681B680A405A607B681B6832
:104E30009A690321BB6801FA03F3DB4319467B68D7
:104E40001B680A409A617B681A687B681B689269D4
:104E50009A6100E000BF1437BD4680BC704780B443
:104E600085B000AF78600B46FB707B685B68012201
:104E700002FA03F3FB60FB78002B16D07B681B7AE9
:104E8000002B08D07B681B6819687B681B68FA6870
:104E90000A431A601FE07B681B681968FB68DA43E5
:104EA0007B681B680A401A6015E07B681B7A002B40
:104EB00009D07B681B681968FB68DA437B681B684C
:104EC0000A401A6007E07B681B6819687B681B68EA
:104ED000FA680A431A6000BF1437BD4680BC7047A9
:104EE00080B485B000AF78607B685B68012202FA0D
:104EF00003F3FB607B681B681A68FB681340FA6861
:104F00009A420CBF01230023FB727B681B7AFA7A5A
:104F10009A420CBF01230023DBB218461437BD466A
:104F200080BC704780B483B000AF0346FB71FB794F
:104F300003F01F03012202FA03F1054A97F9073033
:104F40005B0942F8231000BF0C37BD4680BC704798
:104F500000E100E080B483B000AF03463960FB712C
:104F600097F90730002B0BDA3B68DAB20C49FB7972
:104F700003F00F03043B5201D2B20B441A7609E04E
:104F80003B68DAB2074997F907305201D2B20B44B5
:104F900083F8002300BF0C37BD4680BC704700BFBC
:104FA00000ED00E000E100E080B582B000AF786085
:104FB0007B68013BB3F1807F01D301230FE00A4AF4
:104FC0007B68013B536007214FF0FF30FFF7C2FFC2
:104FD000054B00229A60044B07221A6000231846F2
:104FE0000837BD4680BD00BF10E000E080B500AFCF
:104FF00001210848FCF774FA0346012B07D101216F
:105000000448FCF740FA00F043FE00F065FE00BFE4
:1050100080BD00BF0000074080B584B000AF002312
:10502000FB6004E000BF00BFFB680133FB60FB686E
:105030005A4A9342F6DDFBF7A3F8FFF74BF8034615
:10504000002B00D1FEE7FBF73BF85548FFF7ACFF1C
:10505000544B554ADA60534B4FF000629A60534B01
:105060004FF0FF32C3F88021504B4FF0FF32C3F8AE
:10507000802001214FF40010FBF7DCFE01214FF4EA
:105080008000FBF7D7FE01214FF40000FBF7D2FEB2
:1050900001214FF08070FBF7CDFE01214FF0007031
:1050A000FBF7C8FE01214FF00050FBF7C3FE40F2B2
:1050B000E7323F494FF4804000F01AFE00F05EFEF8
:1050C00000F0F8FEFEF73CF90E20FFF72BFF002062
:1050D000FFF728FF00F0D2FD0246364B1B68D31ABB
:1050E000B3F57A7F04D300F0C9FD0346314A13605B
:1050F00000F0C4FD0246304B1B68D31A042B04D9C0
:1051000000F0BCFD03462C4A136000F0CFFD0346BF
:10511000002B38D000F0D4FDFFF7C6FB0220FFF7CC
:105120008BFB0346002B02D00020FDF75DFF00F053
:10513000A5FD0346184600F00BFC00F051FC0346A9
:10514000002B14BF01230023FB72FB7A002B05D038
:10515000FEF7D0F90346184600F064FCFEF7B8F9F4
:105160000346002B02D1FB7A002B01D0012300E083
:105170000023BB72BB7A03F00103BB72BB7A002B26
:1051800001D0FDF7EBFE00F079FD03461846FEF76F
:105190008FFDFCF7F3FF03467B609BE7DF93040082
:1051A0008038010000ED00E00005FA0500E100E0B4
:1051B00000000740241100202811002080B500AF16
:1051C000044B1B68002B03D00248FFF771FD00E081
:1051D00000BF80BD0007002080B584B000AF03464B
:1051E0000A46FB711346BB80FA791B4913465B00E4
:1051F00013449B000B4408331B78002B04D0BB885E
:10520000C3F580539BB200E0BB88FB81FB79022B86
:1052100014D0022B19DC002B02D0012B07D014E094
:10522000FB891A4603210D48FCF7B1F80FE0FB8912
:105230001A4600210A48FCF7AAF808E0FB891A463A
:1052400001210748FCF7A3F801E0012300E0002357
:1052500018461037BD4680BD2C11002000000840C4
:105260000080074080B58CB000AF7860FFF7A6FFE4
:105270000023FB623EE08549FA6A13465B00134453
:105280009B000B4400221A708049FA6A13465B00A7
:1052900013449B000B44013300221A707B49FA6AC5
:1052A00013465B0013449B000B4404334FF0000291
:1052B0001A607649FA6A13465B0013449B000B445C
:1052C000083300221A707149FA6A13465B001344CE
:1052D0009B000B44093300221A706C49FA6A13468A
:1052E0005B0013449B000B44023300221A70FB6ADC
:1052F0000133FB62FB6A022BBDDD654B00221A7095
:10530000634B00225A700A217868FFF710F80346B1
:1053100087F82B305D4A97F82B3093730921786812
:10532000FFF705F80346DBB2184600F013FF03460B
:105330007B6208217868FEF7FAFF0346DAB2534B26
:105340005A73524B5B7B184600F004FF03463B62E6
:10535000396A786A00F04CFE03464E49184601F05F
:1053600005F803461A46494B1A6107217868FEF78B
:10537000DEFF0346FB77454AFB7F93700621786882
:10538000FEF7D5FF0346DBB2184600F0E3FE034606
:10539000BB6105217868FEF7CAFF0346DAB23B4BD2
:1053A0005A703A4B5B78184600F0D4FE03467B6196
:1053B0007969B86900F01CFE03463649184600F0CA
:1053C000D5FF03461A46314B5A6017217868FEF71D
:1053D000AEFF0346FB742D4AFB7C93761821786858
:1053E000FEF7A5FF0346DBB2184600F0B3FE034606
:1053F000FB6019217868FEF79AFF0346DAB2234B67
:105400005A76224B5B7E184600F0A4FE0346BB6032
:10541000B968F86800F0ECFD03461E49184600F034
:10542000A5FF03461A46194BDA61184B01225A723E
:10543000164B01225A75154B012283F82120144B7B
:1054400001221A70144B1B68002B03D1104B012250
:105450009A7002E00E4B00229A70FB7F19460020E2
:1054600000F03CF897F82B301946012000F036F890
:10547000FB7C1946022000F031F8002000F0DEF835
:10548000002318463037BD4680BD00BF2C110020D8
:105490005011002000007F430007002080B483B03B
:1054A00000AF03460A46FB711346BB71FB79022B22
:1054B00001D901230AE0FA79074913465B00134436
:1054C0009B000B440833BA791A70002318460C3736
:1054D000BD4680BC704700BF2C11002090B585B040
:1054E00000AF03460A46FB711346BB71FB79022BE2
:1054F00001D901234DE0FA79284913465B00134492
:105500009B000B4409331B7883F00103DBB2002BB3
:1055100001D002233DE0FA79204913465B00134491
:105520009B000B4401331B78184600F013FE044621
:10553000BB79184600F00EFEFA79184913465B0055
:1055400013449B000B4404331B68194600F05AFEB9
:1055500003461946204600F04DFD0346FB60F868FF
:1055600000F0A0FF0346FB72FB7A0D4A32F81330BD
:105570003B81FA79094913465B0013449B000B44B5
:10558000BA791A703A89FB7911461846FFF724FE5A
:10559000034618461437BD4690BD00BF2C110020AD
:1055A0001467000880B584B000AF03460A46FB715B
:1055B0001346BB71FB79022B01D9012333E0FA7941
:1055C0001B4913465B0013449B000B4409331B78B3
:1055D00083F00103DBB2002B01D0022323E0FA7930
:1055E000134913465B0013449B000B44BA791A70AD
:1055F000BB79184600F0AEFD03460E49184600F090
:10560000B5FE03460C49184600F0FCFD034618465B
:1056100000F048FF0346FB81FA89FB7911461846E2
:10562000FFF7DAFD034618461037BD4680BD00BFC0
:105630002C11002000007F4300F07F4580B584B02E
:1056400000AF0346FB711B4B1B7883F00103DBB2F9
:10565000002B01D0022329E0164B9B7883F0010335
:10566000DBB2002B0BD0FB79002B0CBF01230023F6
:10567000DBB219461048FFF7F2FB002316E00223C5
:10568000FB73FB79002B02D10C4B1B7B00E000234A
:10569000BB73BB7B0A4A32F81330BB81BB89194606
:1056A0000120FFF799FD0346FB73FB7B184610377B
:1056B000BD4680BD50110020000700202C110020A5
:1056C0001467000880B485B000AF78600023FB60E9
:1056D00004E000BF00BFFB680133FB60FA687B6831
:1056E0009A42F6DB00BF00BF1437BD4680BC70474E
:1056F00080B400AF044B1B680133034A136000BF42
:10570000BD4680BC704700BF5411002080B500AF7B
:10571000FFF7EEFF00BF80BD80B483B000AF7860BC
:105720007B681A067B681B0203F47F031A437B68BD
:105730001B0A03F47F431A437B681B0E134318466E
:105740000C37BD4680BC704780B582B000AF0023E7
:105750007B600023FB7028E0194B1B68002B09D0ED
:10576000174B1A68FB7813441B7883F00103DBB2F4
:10577000002B16D1134B1968FA7813465B001344BB
:105780009B000B441846FFF7ABFB0346002B09D0E8
:10579000FB78012202FA03F31A467B6813437B600D
:1057A00000E000BFFB780133FB70074B1B78FA78F1
:1057B0009A42D1D37B6818460837BD4680BD00BFEA
:1057C0005C110020581100206411002080B485B0C5
:1057D00000AF78600B46FB701346BB701F4B1A6816
:1057E0007B681340002B14BF01230023FB73FA785E
:1057F000FB7B9A4204D1BB78194A0021D15427E09F
:10580000BB78174AD25C0132D1B2154AD154144A3E
:10581000D35C022B1CD9FB78002B06D00F4B1A68E7
:105820007B6813430D4A136006E07B68DA430B4B39
:105830001B681340094A13600A4B1A687B681343BC
:10584000084A1360BB78064A0021D154012300E0C6
:10585000002318461437BD4680BC704768110020ED
:10586000701100206C11002080B582B000AF0023C1
:10587000FB710DE00B4B1968FA7913465B0013447A
:105880009B000B441846FFF7AEFAFB790133FB711E
:10589000054B1B78FA799A42ECD300BF00BF08375A
:1058A000BD4680BD581100206411002080B582B033
:1058B00000AF78607B68002B33D07B685B68002B7F
:1058C0002FD07B689B68002B2BD07B68DB68002B7C
:1058D00027D07B681B78052B25D87B681A78144B5A
:1058E0001A707B685B68134A13607B689B68124A76
:1058F00013607B68DB68114A13607B681A7C104B6D
:105900001A70FFF7B1FF0F4B00221A600E4B0022F6
:105910001A60052200210D4800F05AFE00F0DCF864
:1059200002E000BF00E000BF0837BD4680BD00BFF9
:1059300064110020581100205C110020601100202B
:1059400065110020681100206C11002070110020EA
:1059500080B588B000AF78601E4B1B7883F00103E0
:10596000DBB2002B30D11C4B1B78002B2CD01B4BF7
:105970001B687A68D31ABB61BB69092B26D9174A01
:105980007B681360FFF7E0FE78610023FB7715E08A
:10599000FB7F012202FA03F33B617A693B69134002
:1059A000002B14BF01230023FB73FA7FFB7B1946F6
:1059B0003869FFF70BFFFB7F0133FB77064B1B7842
:1059C000FA7F9A42E4D302E000BF00E000BF203734
:1059D000BD4680BD651100206411002078110020B3
:1059E00080B483B000AF0C4B1B7883F00103DBB2B3
:1059F000002B03D1094B1B78002B01D1002306E0BB
:105A0000074B1B687B60064B00221A607B681846B8
:105A10000C37BD4680BC7047651100206411002022
:105A20006C11002080B485B000AF78607B68002BDB
:105A300047D0264B1B68002B43D0254B1B78002BEF
:105A40003FD00023FB7336E0204B1A68FB7B5B00E2
:105A50001344BB60FB7B01229A401E4B1B68134022
:105A6000002B15D1BB681B781A467B6813441B7842
:105A70005AB2BB685B785BB2DB435BB213405AB28D
:105A8000BB681B7819467B680B44D2B21A700FE0D2
:105A9000BB681B781A467B6813441978BB685A7830
:105AA000BB681B7818467B6803440A43D2B21A705D
:105AB000FB7B0133FB73064B1B78FA7B9A42C3D303
:105AC00000E000BF1437BD4680BC70476011002065
